:100000006F00805013000000130000001300000078
:100010001300000013000000130000001300000094
:100020001300000013000000130000001300000084
:08003000130000007300100032
:100038000000000000000000080300000C0300009E
:10004800000000004E040000000000000000000056
:1000580050040000520400000000000000000000EE
:1000680054040000000000005604000000000000D6
:10007800580400005A0400005C0400005E040000FC
:1000880060040000620400004E1600006C160000B8
:100098008A160000A8160000C81600006E040000AA
:1000A800700400007204000074040000760400006C
:1000B800780400007A0400007C0400007E0400003C
:1000C800800400008204000084040000E61600009A
:1000D800880400008A0400008C0400008E040000DC
:1000E80090040000920400009404000096040000AC
:1000F800980400009A0400009C0400009E0400007C
:10010800A0040000A2040000A4040000A60400004B
:1001180026170000AA040000AC040000AE0400008A
:10012800B0040000B2040000B4040000B6040000EB
:10013800B8040000BA040000BC040000BE040000BB
:10014800C0040000C2040000C4040000C60400008B
:10015800C8040000CA040000CC040000CE0400005B
:10016800D0040000D2040000D4040000D60400002B
:10017800D8040000DA040000DC040000DE040000FB
:10018800E0040000E2040000E4040000E6040000CB
:10019800E8040000EA040000EC040000EE0400009B
:1001A800F0040000F2040000F4040000F60400006B
:1001B800F8040000FA040000FC040000FE0400003B
:1001C8000005000002050000040500000605000007
:1001D8000000000000000000000000000000000017
:1001E8000000000000000000000000000000000007
:0801F8000000000000000000FF
:10020000397101436EC619A0397141536AC866CA73
:1002100062CC5ECE19A0397101535AD056D252D455
:100220004ED64AD826DA22DC06DE330161408282CD
:1002300041114AC026C222C406C68282B24D410183
:10024000024D924C224CB24B4101024B924A224A3F
:10025000B2494101024992442244B24041018280A4
:100260003D432A876373C3029377F700BDEFADE583
:10027000937606FF3D8ABA960CC34CC30CC74CC795
:100280004107E36BD7FE11E28280B306C3408A06C2
:100290009702000096966780A6002307B700A30682
:1002A000B7002306B700A305B7002305B700A304D2
:1002B000B7002304B700A303B7002303B700A302CA
:1002C000B7002302B700A301B7002301B700A300C2
:1002D000B7002300B700828093F5F50F9396850051
:1002E000D58D93960501D58D61B79396270097021A
:1002F000000096968682E78086FA9680C1171D8F49
:100300003E96E374C3F8A5B77300203001A0EFF266
:100310003FF21145C529EF00901E716513050520B8
:10032000EF00F023EF1020701305C003EF100064FE
:10033000316513058561EF10206BEF10B03DEF10B4
:10034000E040EF10A020EF105047EF100015F5BF70
:10035000B71702409843B706FFF84111136717001B
:1003600098C3D84337060200758FD8C39843B706A1
:10037000F7FEFD16758F98C39843B706FCFFFD1670
:10038000758F98C3D843B70681FFFD16758FD8C304
:100390009843B70600ECFD16758F98C33707FF002A
:1003A00098C723A6070202C402C69843C166558FA8
:1003B00098C3B716024005679C42F18F3EC6A2471C
:1003C00085073EC4B24781E7A247E397E7FEB71728
:1003D00002409C431397E7006357070685473EC6D4
:1003E00032478547631FF704B7170240D843B70663
:1003F000C1FFFD16D8C3D843D8C3D84313670740FD
:10040000D8C3D843758FD8C3D843B7062900558FB2
:10041000D8C39843B7060001558F98C398439316E5
:100420006700E3DD06FED843B7160240719BD8C3D0
:10043000D84313672700D8C32147DC42B18BE39E22
:10044000E7FE4101828002C661BF01A001A001A0B8
:1004500001A001A001A001A001A001A001A001A094
:1004600001A001A001A001A001A001A001A001A084
:1004700001A001A001A001A001A001A001A001A074
:1004800001A001A001A001A001A001A001A001A064
:1004900001A001A001A001A001A001A001A001A054
:1004A00001A001A001A001A001A001A001A001A044
:1004B00001A001A001A001A001A001A001A001A034
:1004C00001A001A001A001A001A001A001A001A024
:1004D00001A001A001A001A001A001A001A001A014
:1004E00001A001A001A001A001A001A001A001A004
:1004F00001A001A001A001A001A001A001A001A0F4
:1005000001A001A001A001A09701002093818136E4
:1005100017810020130101AF176500001305C52CDA
:1005200097050020938505AE1386018263FAC50006
:100530008322050023A0550011059105E3EAC5FEBD
:1005400013850182938541856377B50023200500DB
:100550001105E36DB5FEFD42739002BCAD42739090
:100560004280B76200009382820873A00230970233
:1005700000009382A2AC93E2320073905230EFF00D
:100580003FDD970200009382C2D87390123473004B
:1005900020305841032805004C4537060140930799
:1005A00006403E979346F8FFB1C583250640F58D7A
:1005B0002320B640D043F18ED4C31443B3E60601E2
:1005C00014C3184190479346F7FF758E90C7D047E4
:1005D000F18ED4C7144541466399C6009447D98E1D
:1005E00094C7D447558FD8C78280B6979443558F08
:1005F00098C382801C43F58F1CC38280B7070140DB
:100600001387074083A70740584B698F09C77D8D23
:100610003335A000828001458280B707014023AABC
:10062000A740828014455C4158450328C502D58FF8
:10063000D98F1849370600A0D98F5849D98F184D3E
:10064000D98F584DD98F1851D98F5851D98F1855E6
:10065000D98F1859B3E70701D98F18410A073A967D
:100660001CC2A1476396F6001C4293E707041CC214
:1006700054598C4E9C42CD8FCC429205CD8F8C46E6
:10068000A205CD8FCC46C205CD8F8C4AD44AD20567
:10069000CD8FE206D58F5CC291676319F802145DB5
:1006A000904E9C42D18FD0421206D18F90462206A6
:1006B000D18F904AD44A5206E206D18FD58FB70621
:1006C00000A09386461036971CC38280B70700A00F
:1006D000938747103E97B7070010FD17F5B7B70788
:1006E00000A00A053E951C4189C593E717001CC16F
:1006F0008280370710007917F98FD5BF9C4513F713
:10070000070113F8F70001C7D8413368E8008E21CC
:1007100013F7F50F39C318418146854E3D4F930FAE
:10072000800293028004214E3396DE00B3F8C500A8
:10073000631116039398260033131F011343F3FF2D
:100740003377E300B318180133E7E800639FF70538
:1007500050C98506E39AC6FD18C11307F00F6375EB
:10076000B70454412146854E3D4F930F80029302BA
:100770008004414EB398CE0033F715016392E8022E
:100780001317260001173313EF001343F3FFB3765B
:10079000D3003317E800D98E639DF701232A150192
:1007A0000506E319C6FD54C18280E39457FA10C9C7
:1007B0004DB7E39757FE23281501DDB708456D8D2A
:1007C0003335A00082800CC982804CC9828019C256
:1007D0000CC982804CC9828013F7C50F93F735008E
:1007E000B7050140BA9594458A073D473317F7008E
:1007F0001347F7FF758F98C598453315F500598D48
:1008000088C5828023A0A18282809387018294433D
:10081000182181E63C21920721A894430546639F55
:10082000C6023C21103192076314D60093E707F803
:10083000B7E600E093F7F70FBA962380F6408546B7
:10084000935757003397E6005441A5C29387070496
:100850008A07B7E600E0B69798C382808C43894642
:100860006391D50214313C216365D6008A06B697A0
:100870005DB79386E6038A06B69793F7F70F92075C
:1008800075B790438D46631CD60014313C216364D8
:10089000D6008606E9BF9386C6078606F1BF944355
:1008A0009147E39EF6F81C31BDB7938707064DB715
:1008B000371702405C439146B18B6385D700A14650
:1008C0006382D706B7177A00938707201CC13716B3
:1008D00002405C4237070020130707009183BD8B5D
:1008E000BA9794231C41B3D7D7005CC15442A1826C
:1008F0009D8ABA969422B3D6D70014C55442AD82CD
:100900009D8A36971823B3D7E7005CC558423983D0
:10091000937637001387418036971823B3D7E702C1
:100920001CC982805C435843C166C983758FB7F682
:10093000FF1F83A6C670BD8B8907139616016348F7
:100940000600C54601466392D702C94739A88946C1
:10095000638FD702BD46638ED702C146638ED7022E
:10096000C54601466393D700C1471DEF3747024094
:1009700003270780418B05C737177A001307072025
:10098000B307F7021CC121D61C41858381B70146FC
:100990006DBF0546B547D1BF0146BD47F9B737170B
:1009A0003D0013070790E9BFB7150240D8559316CD
:1009B000F700D85563DF060411833D8B93061700BB
:1009C00037177A00130707203357D70218C1D455B9
:1009D000A182BD8A8DE295463307D702058318C1EF
:1009E00037170240585714413D8B050733D7E602AD
:1009F00018C1184171B785456394B600E546E9BF53
:100A0000BD456396B600D1463387E602C9BF890665
:100A1000E5BF3D8B9306170037177A0013070720B1
:100A20003357D702F1B799C5371702405C4B5D8D3C
:100A300048CB8280B7170240D84B1345F5FF798D1C
:100A4000C8CB828099C5371702401C4F5D8D08CFF7
:100A50008280B7170240984F1345F5FF798D88CFF4
:100A600082801E2137370140930607C0C207C18329
:100A70006300D504B7060040630CD5029386064098
:100A80006308D502B7160040138606806302C502CC
:100A9000938606C0630ED50013070740630AE5007E
:100AA00037570140930607C06304D5006316E5007D
:100AB000BA2193F7F7F8D98F37170040630CE50098
:100AC000130707406308E50093F7F7CFFA21C20741
:100AD000C183D98F1EA1DE215EB59E211EB5B73719
:100AE0000140138707C0630EE50093870740630A40
:100AF000F500B7570140138707C06304E50063148E
:100B0000F5009C251EB985475EA982801E31657758
:100B10001307F7CFC207C183BD9BC207C1831EB1B4
:100B20001E31562103D88500C20713960601162DE3
:100B3000C18393F7F7FD758F96214182A206558FE9
:100B4000B62142074183B3E606019206D58FB73638
:100B50000140C207138806C0C183630E0501938656
:100B60000640630AD500B7560140138806C06304E7
:100B70000501631ED502B62593F7F7F703D8C50024
:100B80009206D58FD621C207C183920693F7F7FB51
:100B9000D58FFD769386F63FF18EF225C207C1838D
:100BA000336606010A06D18E13960601418252A1D0
:100BB0001AADFA211ABD1EB182801E2189C593E7A4
:100BC00017001EA18280C207C183F99BC207C1839F
:100BD000CDBF8357450491C52167D98F2312F504F2
:100BE0008280C607C583DDBF1E2189C593E707083C
:100BF0001EA18280C207C18393F7F7F7C207C183A2
:100C0000C5BF1A2DFD779387F77FF98FA205CD8F8A
:100C1000C207C1831EAD82800EBD8280EFF24FE11C
:100C20001629F577FD17F58FF621DA257971D58F1D
:100C30001EA95625FD779387379FF58FD6212A84E5
:100C40002EC6D58F9625D58FB625D58F5EA55E2964
:100C5000C207C18393F7F7CFD98F5EA96808893996
:100C6000B747014093870780B245631AF404A2573F
:100C700056246547B387E702C206C186984163D20E
:100C80000604060752244206B3D7E70213074006BC
:100C90004186B3D6E702B3F7E70292066355060230
:100CA0008E0793872703B3D7E70213F77700B3675D
:100CB000D700C207C1831EA445616FF0AFD9925718
:100CC00045BF0A07C1B7920793872703B3D7E70247
:100CD000BD8BD58FF9BF91C55E250967D98F5EA5FC
:100CE00082805A25F977FD17F98FD5BF93F5F51F47
:100CF0004EA182800A216D8D3335A0008280B70716
:100D0000002083A7070737177A0013070720B3D7F8
:100D1000E70293F7F70F2383F1821307803EB3872F
:100D2000E7022392F1828280B7F700E0D843814640
:100D3000799BD8C303D741823306A70290CBD4CB8B
:100D400098431367070198C398431367170298C322
:100D5000D843058B75DF9843799B98C38280EFF267
:100D60002FCD2A841165011185451105E1399307BD
:100D700000207C82371501408D473EC44C00E1477E
:100D8000130505803EC69D3A22C837440140B70787
:100D900008000C08130504803ECC02CA231E010083
:100DA000B53D8545130504803D3705616FF08FCA59
:100DB000EFF26FC6B7440140AE8932890144938493
:100DC0000480634524014A856FF02FC89305000411
:100DD00026850D3765DDB387890083850700268565
:100DE0000504C205C1811937E9BF138781801C43FF
:100DF000938641853E95636BD500B7860020938628
:100E0000068063E5A60008C33E858280FD57EDBFDE
:100E1000EFF20FC23164130584618145EF00503752
:100E2000B73600009386867561469305D0023D452E
:100E3000EF10E001B7360000938606766146930511
:100E400000052545EF10A000B73600009386C67652
:100E50006146930580073D45EF00707F130584616F
:100E6000FD45EF00F032B7360000938646776146C5
:100E70009305D00213056009EF00707D6FF08FBD00
:100E8000EFF26FB981449309800C1309000F13949A
:100E90000401418022851306C03393056004EF00EE
:100EA000B05222851306C0339305E006EF00D051FF
:100EB00022851306C0339305B009EF00F0501304E8
:100EC0008002931504011306C033C1811305800706
:100ED0000504EF00704FE31634FF8504E39924FB0B
:100EE0006FF0AFB6EFF2CFB41307C03393068002B2
:100EF0001306000F81450145EF00704E31649305E4
:100F000084611305C033EF00B028B7360000938624
:100F1000467113060002954513053002EF00307349
:100F20008537814513058461EF009026B7360000B0
:100F30009386067261469305D0025945EF003071E1
:100F4000B736000093868672614693050005130547
:100F50003002EF00D06FB73600009386C67261464C
:100F60009305D00713053002EF00706EB73600000E
:100F70009386067361469305500A13053002EF000D
:100F8000106DFD4513058461EF009020B736000019
:100F90009386467761469305D00213056009EF00FA
:100FA000106B03A7C182A947631AF708B736000080
:100FB0009386467361469305000513056009EF00AB
:100FC000106903A70183A947631FF706B73600001E
:100FD0009386467361469305D00713056009EF00B9
:100FE000106703A74183A9476314F706B7360000CB
:100FF0009386467361469305A00A13056009EF00C6
:1010000010651307C0339306000F1306000F9305F6
:10101000800C0145EF00B03CB165938585611305F7
:10102000C033EF00F0169306600413062003930507
:1010300020030145EF00F03D6FF0CFA1B73600006F
:101040009386867385BFB73600009386867359B73B
:10105000B73600009386867371BFEFF26F9D13075A
:10106000C0339306C0081306200D9305600479452C
:10107000EF00F036C165FD151305C033EF005011C8
:10108000B73600009386C677130600029305A005C5
:1010900013058002EF00B05B130540067131316526
:1010A00013058561EF0050146FF0CF9AEFF24F985F
:1010B0008547373400001307C0339306000F13062B
:1010C000000F9305800C6319F5040145EF003031E2
:1010D0009305007E1305C033EF00900B9306C47494
:1010E000130600029305D00C2945EF005056B16558
:1010F000938585611305C033EF009009B736000072
:1011000093860675130600029305D00C1305000A9A
:10111000EF00F0536FF00F940145EF00502CB165D4
:10112000938585611305C033EF0090069306C47460
:10113000130600029305D00C2945D9BFEFF24F8F5B
:101140008547373400001307C0339306000F13069A
:10115000000F9305800C6319F5040145EF0030285A
:101160009305007E1305C033EF00900293060475CB
:10117000130600029305D00C1305000AEF00304D52
:10118000B165938585611305C033EF007000B736F4
:1011900000009386C674130600029305D00C2945FF
:1011A000EF00F04A6FF00F8B0145EF005023B1655F
:1011B000938585611305C033EF00807D9306047528
:1011C000130600029305D00C1305000AD1BFEFF2FD
:1011D0002F861307C033930680021306000F814544
:1011E0000145EF00D01F3164930584611305C033BE
:1011F000EF00007AB73600009386467113060002AE
:10120000954513053002EF0090441307C033930651
:10121000000F1306000F9305800C0145EF00301CF2
:10122000930584611305C033EF008076B736000064
:101230009386C674130600029305D00C2945EF006F
:101240001041B73600009386067513060002930519
:10125000D00C1305000AEF00903F930660041306BC
:101260002003930520030145EF00B01A11394D36D4
:101270006FE05FFEEFE2DFFB316513058561EF0094
:10128000A0768D316FE01FFDEFE29FFA856537157F
:1012900001409385058013050540EFF02FD20549E5
:1012A0009384C1823734000063122515372501402D
:1012B000A94701468565130505809CC0EFF02FD135
:1012C0003165FD4513058561EF00806C93068470E0
:1012D00061469305000513056009EF005037B736E6
:1012E00000009386067161469305000513056009A9
:1012F000EF00F03513054006053C37150140930516
:10130000002013050540EFF06FCB0549938401835E
:10131000631B2511372501400146856513050580AE
:10132000EFF0EFCA3165A947FD45130585619CC003
:10133000EF0000669306847061469305D00713059D
:101340006009EF00D030B736000093860671614621
:101350009305D00713056009EF00702F13054006B1
:10136000EFF09F9C37150140A14513050540EFF0B4
:10137000EFC40549938441836314250F3725014049
:10138000A94701468565130505809CC0EFF02FC471
:101390003165FD4513058561EF00805F930684701C
:1013A00061469305A00A13056009EF00502AB7367D
:1013B00000009386067161469305A00A1305600933
:1013C000EF00F02813054006EFF01F963725014087
:1013D000916513050580EFF06FBE0547A9476303CC
:1013E000E500854723A4F1826FE0DFE63725014061
:1013F0000546856513050580EFF06FBD3165FD4538
:101400001305856123A0240161239306847061463E
:101410009305000513056009EF007023B73600003F
:1014200093868673C9B53725014005468565130542
:101430000580EFF0CFB93165FD451305856123A027
:101440002401B9239306847061469305D0071305E0
:101450006009EF00D01FB736000093868673C5BDC4
:10146000372501400546856513050580EFF02FB649
:101470003165FD451305856123A02401112B9306D9
:10148000847061469305A00A13056009EF00301CC3
:10149000B73600009386867339BFEFE27FD9753E79
:1014A0003D33C93BD533FDBF03A7018485469387F0
:1014B00081836319D70003A6C18389466315D602C9
:1014C00098C335A089466310D70283A6C183639C65
:1014D000E60094C39387C180984395460507E311BE
:1014E000D7FE0547F1BF98438947E305F7FE8280A1
:1014F000EFE21FD405455D3E6FE0DFD5EFE25FD33D
:1015000001456D3605451D396FE0DFD4EFE25FD24E
:1015100083A7018405476387E70009476386E700DF
:101520006FE05FD3F137EDBFD13FDDBFEFE25FD0BA
:10153000094723A0E184D93F6FE0DFD1EFE25FCF1D
:10154000054723A0E184D9376FE0DFD0EFE25FCE1B
:101550007971854513055006EFF0CFCE3725014050
:10156000130480049307E0034C0813050580FC82F4
:1015700022CEB7140140EFF06F9885474C081385D1
:101580000480FC8222CEEFF06F978967938707046F
:101590004C0813850440FC8222CEEFF02F96814543
:1015A0000145EFF06FA385451145EFF0EFA28945A6
:1015B0001145EFF06FA28D451145EFF0EFA1914578
:1015C0001145EFF06FA195451145EFF0EFA099455A
:1015D0000D45EFF06FA0B5450D45EFF0EF9F896722
:1015E0009387F70705443ED00810B1473ED422D672
:1015F00002D2EFE01FFA930760117C8668008947EA
:101600005C8722C8EFF06FA0DD4768005C86EFF0D2
:10161000CF9FE14768005C86EFF02F9FE5476800A9
:101620005C86EFF08F9EE94768005C86EFF0EF9DE7
:101630009307700268005C86EFF02F9D930780038C
:1016400068005C86EFF06F9C45616FE0BFC00545A8
:10165000EFE0DFFA11C93735000013058578EF0098
:10166000502E0545EFE07FFB730020300945EFE089
:10167000FFF811C9373500001305C579EF00702C4C
:101680000945EFE09FF9730020301145EFE01FF7A7
:1016900011C9373500001305457AEF00902A11452E
:1016A000EFE0BFF7730020302145EFE03FF519C9A7
:1016B000B53D373500001305C57AEF009028214568
:1016C000EFE0BFF5730020304145EFE03FF311C973
:1016D000373500001305857BEF00B0264145EFE06C
:1016E000DFF37300203013050004EFE03FF111CD6C
:1016F000B135373500001305057CEF009024130544
:101700000004EFE09FF17300203013050002EFE0CA
:10171000FFEE75D9373500001305857CEF00702288
:1017200013050002F9BF0965EFE05FED11CD094730
:1017300023AEE182953B3735000013054579EF0074
:1017400050200965EFE07FED73002030EFE25FAEDF
:10175000411185451305000402C202C402C6EFF020
:101760006FAE896793870780372401407C82C14729
:101770003EC64C008D47130504803EC4EFE01FF8C1
:1017800089659385058013050480EFF0CF834101BF
:101790006FE05FAC13578500B707026098A313751D
:1017A000F50F88A38280B70702609C23411193F74D
:1017B000F70FDC87888741018280EFE2DFA519718E
:1017C0001306C0038145C800130AC10002C002C24B
:1017D00002C4EFE0FFA8714681455285EFE05FA8A3
:1017E00093098102714681454E85EFE07FA78545CB
:1017F00013050010EFF02FA3854513058006EFF0C9
:101800006FA437190140F1770D44E1449387370302
:101810008A85130509407C8026C422C2EFE01FEEB2
:1018200037250140930700788A85130505807C8061
:1018300026C422C2EFE09FEC85678A851305094024
:101840007C8026C422C2EFE07FEB8A8593070008E4
:10185000130509407C8026C422C2EFE03FEA854799
:101860003EC6BD473ECA8567BED4C8009167BED894
:1018700022D8D2DCCEDE02C802CC02CE02D002D206
:1018800002D402D602DA02DC02DE82C082C282C444
:1018900082C682C882CA82CE82CC82D082D282D6CE
:1018A00082DAEFE03FD885450145EFE05FE309616B
:1018B0006FE0BF99EFE2DF97797137340140E88438
:1018C000EC82130504C04C0832C6231D0100231B03
:1018D0000100EFF00F993246930700063ED00C103E
:1018E0009147130504C02312F1022313C1022315EB
:1018F0000102EFF0AFA1130504C08545EFF06FAD15
:10190000130504C08145EFF0CFAF130504C0854532
:10191000EFF08FAD8545130504C0EFF00FAA4561C8
:101920006FE05F93EFE2DF90056541118545130598
:101930008580EFF02F9191677C8237150140E14758
:101940004C003EC6130505C08D473EC4EFE01FDBCB
:1019500013054006EFF04FBD130620039305F00872
:1019600013054006813F41016FE0DF8EEFE25F8C9F
:10197000930740069305400663E4A7009375F50FAF
:1019800037350140130505C0EFF00FA96FE09F8CBC
:101990002392A1842398B1808280B7070260130745
:1019A000A002A38FE7FE1357850098A31375F50FC8
:1019B00088A31357860098A31376F60F90A31307F6
:1019C000B002A38FE7FE13D7850098A393F5F50F18
:1019D0008CA313D7860098A393F6F60F94A313074E
:1019E000C002A38FE7FE8280EFE29F849306F00E91
:1019F000935485001374F50F1306F00E81450145CD
:101A0000693F1307000FB70602609307000FFD1729
:101A100084A2C20780A2C183FDFB7D1742074183D8
:101A20006DF76FE03F83EFE2BF80ED3D7933370420
:101A300002609147A30FF4FEBD33B533AD33931469
:101A40000501C180A204C204B93BC180458D931534
:101A5000050137650000C1811305056DC92B13050C
:101A60002003EFF06FAC93076003A30FF4FE230095
:101A700004001306A003A30FC4FE95471CA0930700
:101A800020FBA30FF4FEB14614A014A02300040011
:101A9000930730031CA01CA0130770FBA30FE4FEE8
:101AA000230004001307B0FBA30FE4FE1303F003AD
:101AB00023006400130700FCA30FE4FE1307C00219
:101AC00018A0130720FCA30FE4FE054718A0130776
:101AD00030FCA30FE4FEB54823001401130740FCBB
:101AE000A30FE4FE1307000218A0130760FCA30F66
:101AF000E4FE0D4718A0930500FDA30FB4FE930567
:101B000040FA0CA0930510FA0CA08155A30FB4FE67
:101B100041582300040118A0A5450CA018A0414578
:101B200018A09305D00208A00CA01307300418A039
:101B3000230064001CA023001401394718A093045B
:101B4000900204A093082003230014018558A30FDA
:101B500014FF2300040114A008A018A018A029470E
:101B600018A00CA01CA0930750041CA010A0D147E3
:101B70001CA0E5471CA0930710031CA0930770034B
:101B80001CA093071002A30FF4FEC547A30FF4FE99
:101B900013054006EFF04F990145B935371501405F
:101BA0009165130505C0EFE01FC2A30F94FE6FE01F
:101BB0006FEAEFE2EFE72A86AE86C53303D50181EF
:101BC000EFF05FBD6FE00FE9EFE28FE63284AE86A3
:101BD0002A86E1332285EFF0FFBB6FE0AFE7EFE24B
:101BE0008FE3AA892E84328A3689BA8A7D3363705C
:101BF00089026FE08FE585045685C204EFF09FB936
:101C0000C180E37A9AFE050442044180CDB7CE84B8
:101C1000CDBFEFE26FDF05713304A6406397D504B3
:101C2000AD3B1306001E81450A85EFE06FE383D7C5
:101C300001818A8613D6870013F7F70F8147639BCC
:101C4000870086070147B7060260639AE7003D6197
:101C50006FE00FDF90A298B285078906CDB73306F3
:101C6000E1001022050790A2CDB7AA84AE8736877F
:101C7000AE8C3389B640854B63478000814B01C4ED
:101C80003304C540FD5B054C63482001014C6305EE
:101C900009003389E7407D5CA28963532401CA8926
:101CA000014B814A014A138D1900E3424DFB939584
:101CB0000C0113950401C1814181A29ADD3D4A9B2B
:101CC00063D55901B38A3A41DE9463D56901330B78
:101CD0003B41E29C050A420A135A0A01F9B793D81C
:101CE00016001308000FB308184163E1A816330863
:101CF000D840636DB814EFE22FD1130406FE4146BD
:101D00001374F40F6390C6069386F50013067500EE
:101D1000C2064206C18241820D6AEFF01FC812045A
:101D20008149130A0A7DC14AB3073401D29703C916
:101D30000700A14493178901E18763D2070203D505
:101D40000181FD14060993F4F40FEFF0BFA4137999
:101D5000F90FEDF08509E39959FD6FE06FCE03D5DA
:101D60004184C5B76146639BC60693867501130619
:101D7000B500C2064206C1824182EFF01FC293073E
:101D800000183304F402116A8144130B0003130A90
:101D90000ADB0D8093F7F40FE38164FD33079400B1
:101DA0005297858B83490700914A91E3A14A0149E3
:101DB00093978901E18763D0070203D50181050963
:101DC00086091379F90FEFF0FF9C93F9F90FE3916E
:101DD0002AFF8504C1B703D54184D5B71306000295
:101DE0006390C6069386F5011306F500C206420607
:101DF000C1824182156AEFF05FBA1A048149130A61
:101E00000AF5930A0004B3878900D29703C9070033
:101E1000A14493178901E18763D1070203D50181AA
:101E2000FD14060993F4F40FEFF0DF961379F90F20
:101E3000EDF08509E39959FD0DB703D54184CDB780
:101E4000376500001305C56DDD2201BF8280557125
:101E500026DB4AD94ED7AA84B2892E8913060008F8
:101E60008145080822DDBAC1BEC306DF52D556D36C
:101E70005AD15ECF3684C2C5C6C7EFE06FBE13F736
:101E800079FFC147630CF700930700026388F900EC
:101E900037650000CE8513058572512A940122868C
:101EA00093054006080836C6012613D71900930784
:101EB000000F131B0701C16AB38BE740135B0B01D3
:101EC0000008338A3741938A0A801C2081EFFA5038
:101ED0006A54DA544A59BA592A5A9A5A0A5BFA4B3E
:101EE0006961828063F79B004E9942091359090189
:101EF000814463772A015685EFF01FAF0149814481
:101F000010202685DA94CE86CA85C204C93BC180DA
:101F1000050465BFEFE22FB041118545130540066A
:101F20003724014002C202C402C6EFE0BFB1130968
:101F300080028D449307E0034C00130504807C82EB
:101F40004AC626C4EFE08FFB130504809305E00327
:101F5000EFE07F87B71901408967938707044C003A
:101F6000138509407C824AC626C4EFE02FF98965B3
:101F70001385094093850504EFE0FF8485474C00F5
:101F8000138509807C824AC626C4EFE02FF71385AB
:101F900009808545EFE03F8391674C00130504807D
:101FA0007C824AC626C4EFE06FF591651305048074
:101FB000EFE07F8141016FE04FA9EFE26FA7411190
:101FC00085451305000202C202C402C6EFE09FA7C6
:101FD000371901408567938787A0930480020D44D9
:101FE0004C00130509407C8226C622C4EFE00FF1A5
:101FF000856513050940938585A0EFE00FFD8545B4
:1020000013050004EFE01FA422C4372401409167A8
:102010004C00130504807C8226C6EFE02FEE91650C
:1020200013050480EFE02FFA41016FE0AFA2397190
:102030003EDA2ED232D436D63AD842DC46DE938708
:10204000418122CC804326CA06CEAA8409C41C4CF6
:1020500099E322859D230C4454102686228536C69A
:10206000EF00504EF2406244D2442161828001115F
:1020700026CA4AC806CE22CC4EC652C4AA842E898D
:1020800001C51C4D91E3152B9C4C804499E326859A
:102090002D23974700009387676D631BF402C040B0
:1020A0005E24A18BB1C71C48A1C7FD59294A1C4415
:1020B00083450900FD17B1E91CC463DD07062286CC
:1020C000A9452685D528FD576308F502294535A081
:1020D000974700009387876B6314F4008044C9B767
:1020E0009747000093878766E31CF4FAC0444DBF0E
:1020F000A2852685412255D97D55F2406244D244BD
:102100004249B249224A056182801CC4050963D74D
:102110000700184C63CAE700638845011C40138719
:10212000170018C08CA361B7228626857120E310A2
:1021300035F9D9B71C401387170018C0294798A351
:1021400071B793874181AA85884315B71971A2DCBD
:1021500086DEA6DA3284635B06009307B0081CC1F2
:102160007D55F6506654D6540961828036869306B2
:1021700080202EC42ECCF482814519C09305F4FF33
:10218000FD572EC82ECEBA862C00FC83AA84EF0001
:10219000500EFD576355F5009307B0089CC071D0F1
:1021A000A2472380070075BF938741813687B28697
:1021B0002E86AA85884359BF011122CC26CA4AC857
:1021C00006CE4EC6AA842E89328401C51C4D91E3E9
:1021D000ED2697470000938767596317F406C040C0
:1021E0001C4C1CC45E24A18BC1C31C48B5CF1C4829
:1021F00008409379F90F1379F90F1D8D5C486346F8
:10220000F500A2852685692C25E51C440505FD17EA
:102210001CC41C401387170018C0238037015C487A
:102220006388A7005E24858B81CBA9476316F900DC
:10223000A2852685B5240DEDF24062444A85D2443C
:102240004249B2490561828097470000938707544D
:102250006314F400804469B7974700009387074FE1
:10226000E310F4F8C044ADBFA2852685212041D1FA
:102270007D59D9B741119387418126C2844322C435
:102280004AC006C62A892E8489C49C4C99E32685B7
:102290002D26974700009387674D631BF402C040CB
:1022A0000317C40093170701C18393F68700ADEAB3
:1022B00093F6070195EEA5472320F900136707045D
:1022C0005AA47D55B2402244924402494101828081
:1022D000974700009387874B6314F4008044C9B785
:1022E0009747000093878746E31CF4FAC0444DBF2C
:1022F000918B9DC34C5889C9930744046384F500AE
:102300004A853123232A04025E242322040093F702
:10231000B7FD5EA41C481CC05E2493E787005EA442
:102320001C4899EB5E241307002093F70728638568
:10233000E700A2854A85A1215E2413F717001DC37B
:102340005C4823240400B307F0401CCC1C48014522
:10235000B5FB8317C40013F707082DD793E70704CD
:102360005EA485B7898B014791E3584818C4F9BF2B
:10237000DE25011122CC26CA06CE4AC84EC613F766
:102380008700AA842E8479EBD841634DE000B841E0
:10239000634AE0000145F2406244D2444249B249F6
:1023A0000561828058547DD703A9040093963701B4
:1023B00023A0040063DB060670485E24918B99C756
:1023C0005C401D8E5C5899C33C401D8E5C540C5083
:1023D000814626858297FD575A24631DF500944057
:1023E000F54763E8D706B70740208507B3D7D7007E
:1023F000858BA5C31C48232204001CC093173701FA
:1024000063D80700FD576314F5009C4091E368C84A
:102410004C5823A02401BDDD930744046384F500D8
:102420002685F526232A0402B5B70C5001468546B9
:1024300026850297FD572A86E311F5F89C40B5DF03
:1024400075476385E70059476393E70423A0240198
:1024500091B7136707045AA47D5535BF83A90501B9
:10246000E38A09F203A905008D8B23A03501330906
:102470003941014791E3D84918C4E35D20F11C5468
:102480000C50CA864E86268582976347A0005E243C
:1024900093E707045EA4C9B7AA993309A940F1BF1D
:1024A0009C49B9CF011122CC06CE2A8411C51C4DFE
:1024B00081E72EC61922B245974700009387072B64
:1024C000639BF5004C408397C50095C72285624405
:1024D000F240056171BD974700009387272B6394F5
:1024E000F5000C44CDB79747000093872726E39C5F
:1024F000F5FC4C44C9BFF24062440145056182804D
:1025000001458280411122C406C62A844EA572A5C7
:10251000232005002322050023240500232205068D
:1025200023280500232A0500232C05002146814588
:102530001305C505EFD0DFD2971700009387A7E6F4
:102540005CD0971700009387C7E81CD4971700004A
:102550009387A7EC5CD497170000938707EF00D010
:102560001CD8B24022444101828097050000938527
:1025700065F3A9A2411126C2130680069384F5FFD4
:10258000B384C4024AC02E8922C406C69385440778
:102590001D262A8401CD2320050023222501310593
:1025A00008C4138684068145EFD09FCB2285B240B4
:1025B000224492440249410182801C4DADE3411105
:1025C00006C622C497070000938767FA1CD5938735
:1025D00081819C4323240504232605042328050424
:1025E0006314F50085471CCD2A841D2848C0228528
:1025F000052808C422852D2048C44840014691453D
:10260000113708440546A545F53D48440946C945E6
:10261000D53D85471CCCB240224441018280828056
:1026200041119387818126C284434AC006C69C4CCF
:1026300022C42A8999E326854937938484048044F7
:10264000DC40FD1763D607009C40B9CF8440C5BF6E
:102650000317C40039E7C177850723220406232026
:10266000040023220400232404005CC42328040063
:10267000232A0400232C0400214681451305C405A8
:10268000EFD01FBE232A0402232C040223240404B7
:10269000232604042285B240224492440249410187
:1026A00082801304840671BF91454A85E13588C054
:1026B00051FDB1472320F9000144E9BF797122D4CB
:1026C0004AD052CC56CA5AC85EC606D626D24ECE7C
:1026D0002A8AAE8A130485040149054BFD5B09EC87
:1026E000B25022544A8592540259F249624AD24A5F
:1026F000424BB24B45618280044483294400FD195A
:1027000063D409000040E1BFDE24637BFB008397B4
:10271000E40063877701A6855285829A3369A90010
:1027200093848406E9BF1971A6DAAE848395E50027
:10273000A2DC86DE328463DB0500DE2423A00600F3
:1027400093F7070885E7930700401DA0300836C6B9
:10275000EF003055B246E34205FE7247BD67F98F80
:102760007977BA9793B717009CC2F1BF930700041B
:102770001CC0F6506654D654014509618280DE259E
:10278000011122CC06CE26CA4AC8898B2E8489CF55
:10279000930774041CC01CC885475CC8F24062449F
:1027A000D24442490561828074003000AA84A53F6A
:1027B000A2452A892685012219E98317C40013F747
:1027C000072069FFF19B93E727005EA4D1B7970725
:1027D00000009387C7D99CD45E2408C008C893E73B
:1027E00007085EA4A2475CC8B24781CF8315E40006
:1027F0002685EF00B04D11C55E24F19B93E71700CD
:102800005EA45E243369F9002316240141BFDDC1B3
:1028100083A7C5FF411122C406C626C21384C5FF83
:1028200063D307003E94AA84EF009060938781846D
:102830009C4381EF2322040023A481842244B240DC
:102840002685924441016F00D05E637EF4001440FF
:102850003307D4006396E7009843DC43369718C0EB
:102860005CC0D9BFBA87D84319C3E37DE4FE944363
:102870003386D700631F86001040B29694C3338618
:10288000D700E31DC7FA10435843B29694C3D8C388
:1028900075B76375C400B1479CC04DB71040B3060F
:1028A000C4006316D70014435843B29614C058C0EE
:1028B000C0C369B78280011126CA93843500F1989C
:1028C00006CE22CC4AC84EC6A104B14763F5F40433
:1028D000B14463E4B4042A89EF009055938781845E
:1028E00098433A8429E49387C1849C4399E78145BE
:1028F0004A85EF00702823A6A184A6854A85EF00AB
:10290000B027FD5963193507B1472320F9004A85DF
:10291000EF00305229A0E3DE04FAB1471CC10145A3
:10292000F2406244D2444249B249056182801C406F
:10293000858F63CF0702AD4663F6F6001CC03E9458
:1029400004C031A05C406313870223A4F1844A854C
:10295000EF00304E1305B40093074400619933072C
:10296000F5405DDF3A94898F1CC05DBF5CC3C5B77D
:102970002287404085BF130435007198E30285FC2F
:10298000B305A4404A85EF00301FE31B35FBADBF04
:1029900001114AC803A9850022CC52C45AC006CEF0
:1029A00026CA4EC656C22E84328B368A63E8260962
:1029B000DE2513F7074849C304408C495848AA8AC2
:1029C000B389B4408D44B384E4020947B3C4E4023C
:1029D000138716004E9763F3E400BA8493F7074019
:1029E000B5CFA6855685C13D2A891DE1B14723A0F3
:1029F000FA005E247D5593E707045EA4F24062442A
:102A0000D2444249B249224A924A024B056182802D
:102A10000C484E86EF0050325E2493F7F7B793E7E9
:102A200007085EA42328240144C84E99B384344186
:102A30002320240104C4528963732A015289084067
:102A40004A86DA85EF00703A1C440145B387274176
:102A50001CC41C403E99232024014DB72686568570
:102A6000EF00503D2A895DFD0C485685EFF03FDAB6
:102A7000B5BFDE25717126D34AD14ECF06D722D5F8
:102A800052CD56CB5AC95EC762C566C393F70708D5
:102A9000AA892E89B284B9C39C49A9E3930500048D
:102AA00036C6EFF05FE12320A9002328A900B24633
:102AB00015E1B14723A0F9007D55BA502A549A5424
:102AC0000A59FA496A4ADA4A4A4BBA4B2A4C9A4C92
:102AD0004D61828093070004232AF90093070002C6
:102AE000A30CF1029307000302DA230DF10236CEA4
:102AF000930B5002974A0000938A4ACB054C294B0E
:102B000026841C2099C363997709B30C9440638E83
:102B10000C00E6862686CA854E85EFF07FE7FD57D6
:102B2000630BF518D256E69636DA1C206385071833
:102B3000FD579304140002D002D63ED202D4A30162
:102B4000010682DC8C2015465685EF00701D13842B
:102B50001400825721E513F7070109C71307000284
:102B6000A301E10613F7870009C71307B002A30109
:102B7000E10694201307A002638AE602B257268476
:102B800081462546182093051400130707FD63723C
:102B9000E6068DC63ED61DA00504A5B733055541F2
:102BA0003315AC00C98F3ED0A28469BF724793062B
:102BB0004700184336CE634707023AD618209307DA
:102BC000E002631DF70418309307A002631BF702AD
:102BD000F2470904138747009C433ACE63C10702BA
:102BE0003ED22DA83307E04093E727003AD63ED0E7
:102BF000F1B7B387670385462E84BA9761B7FD574F
:102C0000C5B7050402D281468147254618209305A1
:102C10001400130707FD6376E606F9F20C200D4653
:102C200017450000130505B9EF00900F11CD974728
:102C30000000938727B81D8D93070004B397A70062
:102C4000025505045D8D2AD00C2019461745000059
:102C5000130585B693041400230CB102EF00500C49
:102C600025C597D7FFFF9387E73995E70257F247C6
:102C70001377071009CF91073ECED257D2973EDA8D
:102C800041B5B387670385462E84BA9741B79D0740
:102C9000E19BA107D5B7780897060000938686CFF9
:102CA0004A860C104E8597000000E7000000FD5793
:102CB0002A8AE314F5FC8357C9007D5593F707046E
:102CC000E39D07DE5255D5BB780897060000938632
:102CD00066CC4A860C104E85FD2ED1BF1C46FD17D2
:102CE0001CC663DA0700184E63C5E700A947639462
:102CF000F5006FF06FCC1C422E851387170018C2A9
:102D00008CA38280011122CC26CA4AC84EC652C466
:102D100006CE2A89AE893284B304D6007D5A631464
:102D20009400014501A80C204E864A85453F0504C4
:102D3000E31745FFF2406244D2444249B249224A75
:102D400005618280357122CD26CB4AC94EC706CF98
:102D500052C556C35AC1DEDEE2DCE6DAAA89AE8489
:102D60003289368409C51C4D99E3EFF01F859747DA
:102D700000009387A79F6397F40C83A44900DE2487
:102D8000A18BFDC39C48EDC393070002A304F1028D
:102D90009307000302D22305F10222C6930B5002CF
:102DA000974A0000938A8AA0054C294B4A841C202C
:102DB00099C3639E770DB30C2441638D0C00E686A6
:102DC0004A86A6854E853D3FFD57630FF51C9256FA
:102DD000E69636D21C206389071CFD5713091400A0
:102DE00002C802CE3ECA02CCA309010482D48345A4
:102DF0000900154656852D2713041900C24751E9CD
:102E000013F7070109C713070002A309E10413F729
:102E1000870009C71307B002A309E104834609002C
:102E20001307A002638FE606F2474A8481462546CF
:102E3000182093051400130707FD6377E60AB5CA47
:102E40003ECE85A897470000938747946395F4008A
:102E500083A489002DB7974700009387278FE390BD
:102E6000F4F283A4C90021BFA6854E85EFF08FC080
:102E700001DD7D55FA406A44DA444A49BA492A4A92
:102E80009A4A0A4BF65B665CD65C0D61828005044B
:102E900039BF330555413315AC00C98F3EC822896F
:102EA000B9B7324793064700184336C6634707024F
:102EB0003ACE18209307E002631DF70418309307F9
:102EC000A002631BF702B2470904138747009C4323
:102ED0003AC663C107023ECA2DA83307E04093E714
:102EE00027003ACE3EC8F1B7B387670385462E84E4
:102EF000BA973DBFFD57C5B7050402CA8146814751
:102F00002546182093051400130707FD6374E60691
:102F1000F9F20C200D46174500001305A589092577
:102F200011CD974700009387E7881D8D9307000414
:102F3000B397A700424505045D8D2AC80C201946A9
:102F40001745000013054587130914002304B10237
:102F5000C12B35C197D7FFFF9387C70A95E7424733
:102F6000B2471377071009CF91073EC69257D29701
:102F70003ED22DBDB387670385462E84BA9751B7DD
:102F80009D07E19BA107D5B77800970600009386BF
:102F9000A6D726860C084E8597000000E7000000A3
:102FA000FD572A8AE314F5FCDE2493F70704E39225
:102FB00007EC1255C1B57800970600009386C6D479
:102FC00026860C084E85012AE1BF797156CA9C49B4
:102FD000BA8A984522D426D24ECE52CC06D64AD0B2
:102FE0005AC85EC6AA892E84B284368A63D3E700A3
:102FF000BA879CC00347340419C385079CC01C4092
:1030000093F7070281C79C4089079CC003290400ED
:1030100013796900631A0900130B9401FD5B5C448A
:103020009840998F634CF9041C408346340493F70D
:103030000702B336D000A5EB13063404D2854E85C3
:10304000829AFD576303F5041C4011469840998B02
:10305000544481446397C700B384E64063D30400BB
:1030600081441C4418486354F700998FBE94014969
:1030700069047D5B63982405014509A885465A8645
:10308000D2854E85829A631E75017D55B2502254B9
:1030900092540259F249624AD24A424BB24B4561BC
:1030A00082800509ADBF3307D40013060003A301D6
:1030B000C7040347540493871600A2978906A38187
:1030C000E7049DBF85462286D2854E85829AE30E0F
:1030D00065FB050945B7797122D426D24AD04ECE78
:1030E00006D652CC56CA5AC8B689942D9307900674
:1030F0003289AA842E8413863504638DF60263E236
:10310000D706930780056386F61863EDD700638EB4
:10311000062093073004638EF60A930A24042301E1
:10312000D404C9A0930730066385F60A93074006C6
:10313000E395F6FE1C40084393F607089305450007
:10314000C5C61C410CC363D807001307D002B307E0
:10315000F040A301E4049736000093866666294791
:1031600065A8930700076382F61663E5D702930705
:10317000E0066389F6189307F006E390F6FA0C4030
:103180001C4313F80508138547006307080608C3A6
:103190009C4385A893075007E383F6FE93078007B7
:1031A0006389F61293073007E399F6F61C43D04182
:1031B00081459386470014C383AA070056858D2650
:1031C00001C53305554148C05C401CC8A301040437
:1031D00061A81C43930A2404938647009C4314C3AC
:1031E0002301F4048547D5B793F607041C410CC3AB
:1031F000B9DAC207C18781BF93F5050408C3C9D9ED
:103200009E231307F0066387E60E97360000938629
:10321000265B2947A30104044C400CC463C5050088
:1032200008406D9908C099E3B28A89CDB28AB3F596
:10323000E702FD1AB6958C212380BA00B3D5E702C8
:1032400063F0E70CA147631EF7001C40858B91CB10
:1032500058401C4863C7E70093070003A38FFAFE9A
:10326000FD1A3306564110C84E87CA867000A285E3
:103270002685EFF09FD57D5A631D450B7D55B250D5
:10328000225492540259F249624AD24A424B456151
:103290008280A382D50497360000938666520C4044
:1032A000084313F805081C411105630D080208C303
:1032B00013F7150001C793E505020CC04147B9FBA0
:1032C0000C4093F5F5FD0CC0B1B79C4193E70702A4
:1032D0009CC193078007A302F404973600009386ED
:1032E000664F75BF13F8050408C3E30308FCC20763
:1032F000C1837DBF973600009386864C214719BF56
:10330000AE8735B794411C43CC4913F806081385A2
:1033100047006306080008C39C438CC339A008C358
:1033200093F606049C43F5DA8EA323280400B28AA0
:1033300025BF14485686CA8526858299E30045F53F
:103340001C40898B8DE7B2474844E35AF5F23E852D
:103350003DB785465686CA8526858299E30065F382
:10336000050A5C443247998FE345FAFEE9BF014AFA
:10337000930A94017D5BF5B7411122C42A842E85FE
:1033800023A8018406C6EFD05FA6FD576317F5009A
:10339000938701859C4391C31CC0B24022444101E4
:1033A0008280411122C42E848395E50006C6F92C43
:1033B000634905007C48AA977CC8B2402244410179
:1033C00082805E247D777D17F98F5EA4FDB7DE25B0
:1033D000011122CC26CA4AC84EC606CE93F7071062
:1033E000AA842E843289B68991C78395E5008946DF
:1033F000014609225E247D777D17F98F5EA483152F
:10340000E4006244F240CE864A86B24942492685AB
:10341000D244056125A8411122C42E848395E5007C
:1034200006C6C928FD575A24631AF500FD77FD1713
:10343000F98F5EA4B2402244410182808567D98F12
:103440005EA468C8C5BF8395E50005A8411122C4E4
:103450002A842E85B285368623A8018406C6EFD03D
:103460003F95FD576317F500938701859C4391C3F2
:103470001CC0B240224441018280411122C42A84EE
:103480002E8523A8018406C69124FD576317F500F5
:10349000938701859C4391C31CC0B24022444101E3
:1034A0008280411122C42A842E85B28523A80184FA
:1034B00006C61D24FD576317F500938701859C43BD
:1034C00091C31CC0B240224441018280411122C4F8
:1034D0002A842E8523A8018406C62924FD57631754
:1034E000F500938701859C4391C31CC0B2402244E0
:1034F00041018280411122C42A842E85B2853686FC
:1035000023A8018406C6ED22FD576317F5009387B3
:1035100001859C4391C31CC0B2402244410182807A
:1035200093F5F50F2A966314C500014582801C218E
:10353000E38EB7FE0505C5BFB3C7A5008D8B330766
:10354000C50081E78D4763EDC700AA87637EE50864
:10355000942185078505A38FD7FEE3EBE7FE8280E4
:1035600093763500AA8789CA942185078505A38F9C
:10357000D7FE93F63700C5BF9376C7FF138606FEC6
:1035800063F0C70683A3050083A2450083AF8500CF
:1035900003AFC50083AE050103AE450103A385015A
:1035A00083A8C5019385450223A0770003A8C5FF22
:1035B00023A2570023A4F70123A6E70123A8D701DC
:1035C00023AAC70123AC670023AE170193874702E4
:1035D00023AE07FF75B790419107910523AEC7FE53
:1035E000E3EBD7FEE3E6E7F6828063F1A504B3865A
:1035F000C500637DD5029345F6FF8147FD176393B0
:10360000F50082803387F600034807003387C70040
:103610002A9723000701DDB73387F500142333070A
:10362000F500850714A3E319F6FE82808147E5BF04
:103630008280828081E5B2856FF0EFA7011122CCF4
:1036400006CE26CA4AC84EC6328401EEEFF02F9C41
:103650000149F24062444A85D2444249B249056177
:103660008280AE84AA8989282689E37485FEA28592
:103670004E85EFF04FA42A8969DDA6852286EFF0FA
:10368000BFEBA6854E85EFF08F98E1B7411122C4BC
:103690002A842E85B285368623A8018406C6B928D9
:1036A000FD576317F500938701859C4391C31CC0A8
:1036B000B24022444101828083A7C5FF1385C7FF22
:1036C00063D50700AA959C413E95828093078005AB
:1036D00023A8F1847D5582809307800523A8F18477
:1036E0007D5582809307800523A8F184014582805F
:1036F0009307800523A8F1847D5582809307800578
:1037000023A8F1847D558280202020200000000025
:103710006F6B0000736D61727420686F6D652000BF
:1037200072656C61790000004B3100004B32000083
:103730004B3300004F4B0000706C746500000000BC
:10374000666163650000000052310000736574001B
:103750006E6578740000000073656E736F72000010
:1037600068756D69646974790000000074656D7531
:10377000726500006461746100000000746F206C69
:103780006F61642E2E2E000057616B65205550200E
:10379000210D000053454C20210D000055502021E3
:1037A0000D000000444F574E20210D00524947485C
:1037B0005420210D000000004B45593120210D00FF
:1037C0004C45465420210D004B45593220210D0017
:1037D00000000000000000000000000000000000E9
:1037E0000000001010101010100000101000000059
:1037F0000000002828282800000000000000000029
:103800000000001212167F2424FE28484800000001
:10381000000008083E4948683E0B09493E08080078
:10382000000000609090620C30460909060000001C
:103830000000001C20203030494545623D0000005A
:103840000000001010101000000000000000000038
:1038500000000C08081010101010100808040000D8
:103860000000301010080808080808101030000088
:1038700000000008493E1C6B08000000000000002A
:103880000000000000101010FE10101000000000DA
:1038900000000000000000000000001818102000C8
:1038A00000000000000000000038000000000000E0
:1038B00000000000000000000000001818000000D8
:1038C000000000020404040808101020202040001A
:1038D0000000001C22414149414141221C000000DE
:1038E0000000001828080808080808083E00000022
:1038F0000000003E43010102060C10207F00000082
:103900000000003E4101031C030101433E00000092
:10391000000000060A1A1222427F02020200000082
:103920000000007E40407C42010101423C0000005A
:103930000000001E3160405E634141231E00000014
:103940000000007F0302040408081010200000009B
:103950000000003E4141413E634141633E000000A2
:103960000000003C624141633D0103463C00000011
:1039700000000000000018180000001818000000E7
:1039800000000000000018180000001818102000A7
:103990000000000000010E3840380E010000000059
:1039A0000000000000007F00007F00000000000019
:1039B000000000000040380E010E384000000000FA
:1039C0000000003844040C18101000101000000013
:1039D0000000001E332147494949494720300E0065
:1039E0000000000814141414223E2241410000007B
:1039F0000000007E4141417E434141437E00000082
:103A00000000001E21404040404040211E000000B8
:103A10000000007C42414141414141427C000000A4
:103A20000000007F4040407F404040407F00000059
:103A30000000007F4040407F404040404000000088
:103A40000000001E21404040434141211E00000073
:103A5000000000414141417F41414141410000009E
:103A60000000007C10101010101010107C000000DE
:103A70000000001C04040404040404443800000092
:103A8000000000424448507078484446420000001C
:103A90000000004040404040404040407F00000067
:103AA0000000006363555555494141414100000004
:103AB0000000006161515149494545434300000000
:103AC0000000001C22414141414141221C000000F4
:103AD0000000007E434141437E40404040000000E2
:103AE0000000001C22414141414141221E060200CA
:103AF0000000007E434141437C42414140000000C0
:103B00000000001E614040300E0101433E000000F5
:103B1000000000FE10101010101010101000000017
:103B20000000004141414141414141633E000000EC
:103B30000000004141222222141414140800000045
:103B40000000008181815A5A5A666666660000004C
:103B50000000004122141408141422224100000025
:103B6000000000824444283810101010100000009B
:103B70000000007F03020408081020607F0000009E
:103B800000001C101010101010101010101C00005D
:103B90000000004020202010100808040404020047
:103BA0000000380808080808080808080838000055
:103BB000000000102844C6000000000000000000C3
:103BC000000000000000000000000000000000FFF6
:103BD000003010080000000000000000000000009D
:103BE00000000000001C22023E4242463A00000053
:103BF00000004040407C6442424242645C0000005D
:103C000000000000001C2240404040221C00000038
:103C100000000202023E2642424242263A000000D2
:103C200000000000003C26427E4040221C000000B4
:103C300000000C10107C101010101010100000006C
:103C400000000000003A2642424242263A02221C6C
:103C500000004040405C624242424242420000005A
:103C60000000101000701010101010107C000000E8
:103C70000000080800380808080808080808087044
:103C80000000404040444850704848444200000012
:103C90000000701010101010101010100E00000016
:103CA00000000000007E4949494949494900000097
:103CB00000000000005C62424242424242000000BA
:103CC00000000000003C6642424242663C000000A8
:103CD00000000000005C6442424242647C4040407C
:103CE00000000000003A2642424242263A02020206
:103CF00000000000003C3220202020202000000096
:103D000000000000003C4240700E02423C000000F7
:103D100000000010107E1010101010100E00000097
:103D20000000000000424242424242463A00000087
:103D3000000000000042422424241818180000004B
:103D4000000000000081815A5A5A5A2424000000C1
:103D5000000000000042241818182424420000002B
:103D60000000000000422224241418180808103013
:103D700000000000007E0204081020407E000000C9
:103D800000000C10101010106010101010100C001B
:103D90000000101010101010101010101010101043
:103DA00000006010101010100C10101010106000A7
:103DB0000000000000000000000000000000000003
:103DC00000000000000000000000000000000000F3
:103DD00000000000000000000000000000000000E3
:103DE00000000000000000000600060006000600BB
:103DF000060006000600060006000600000000009F
:103E000006000600060000000000000000000000A0
:103E1000000000000000000019801980198019803E
:103E20001980198000000000000000000000000060
:103E30000000000000000000000000000000000082
:103E40000000000000000000066004400CC00CC030
:103E50007FF07FF0088019801980FFE0FFE03300D9
:103E600033002200220000000000000000000000DB
:103E7000000000000000020002000F801FC03A4056
:103E8000320032003A001F0007C002E00260026008
:103E900022E03FC01F80020002000200000000007C
:103EA000000000000000000078004800CC00CC00BA
:103EB000CC00484079C00E0073C002400660066026
:103EC0000660024003C00000000000000000000087
:103ED00000000000000000000F801F801800180084
:103EE00018000C001E003630633063B061A060E043
:103EF00030C03F600E7000000000000000000000B5
:103F00000000000000000000060006000600060099
:103F10000600060000000000000000000000000095
:103F20000000000000000000000000000000000091
:103F30000000000000000100020002000600060070
:103F400004000C000C000C000C000C000C000C0019
:103F5000040006000600020002000100000000004C
:103F60000000000000000800040004000600060035
:103F7000020003000300030003000300030003002A
:103F80000200060006000400040008000000000013
:103F900000000000000000000400040044403580E0
:103FA0000E000E00358044400400040000000000B4
:103FB0000000000000000000000000000000000001
:103FC00000000000000000000000000006000600E5
:103FD0000600060006007FE07FE0060006000600FF
:103FE00006000600000000000000000000000000C5
:103FF00000000000000000000000000000000000C1
:1040000000000000000000000000000000000000B0
:1040100006000600060006000C000C000000000070
:104020000000000000000000000000000000000090
:1040300000000000000000001F001F000000000042
:104040000000000000000000000000000000000070
:104050000000000000000000000000000000000060
:104060000000000000000000000000000000000050
:10407000060006000600000000000000000000002E
:104080000000000000000000006000C000C00180CF
:104090000180030003000600060006000C000C006F
:1040A0001800180030003000600000000000000020
:1040B00000000000000000001E003F80318071C041
:1040C00060C060C066C066C060C060C060C071C0D3
:1040D00031803F800E000000000000000000000062
:1040E000000000000000000007001F001B0003008C
:1040F00003000300030003000300030003000300A8
:1041000003001FE01FE000000000000000000000AE
:1041100000000000000000003F007F8041C000C0A0
:1041200000C000C001C00180030006000C001800A0
:1041300030007FC07FC000000000000000000000D1
:1041400000000000000000003F007F8041C000C070
:1041500000C001C00F800F80018000C000C000C0FF
:1041600041C07F803F000000000000000000000010
:10417000000000000000000003800380078005802D
:104180000D80098019803180318061807FE07FE07F
:10419000018001800180000000000000000000009C
:1041A00000000000000000003F803F803000300031
:1041B00030003F003F8021C000C000C000C000C0F0
:1041C00041807F803E0000000000000000000000F1
:1041D00000000000000000000F001F803880300049
:1041E000700060006F007F8071C060C060C060C000
:1041F00031C03F801F0000000000000000000000F0
:1042000000000000000000007FC07FC0018001802E
:1042100001800300030003000600060006000C00F6
:104220000C000C001800000000000000000000005E
:1042300000000000000000001F003F8071C060C04F
:1042400060C031801F003F80318060C060C060C0AE
:1042500071C03F801F00000000000000000000004F
:1042600000000000000000001F003F80718060C05F
:1042700060C060C071C03FC01EC000C000C00180EF
:1042800023803F001E00000000000000000000002E
:10429000000000000000000000000000000000001E
:1042A00006000600060000000000000000000000FC
:1042B00006000600060000000000000000000000EC
:1042C00000000000000000000000000000000000EE
:1042D00006000600060000000000000000000000CC
:1042E00006000600060006000C000C00000000009E
:1042F000000000000000000000000000000000209E
:1043000001E007801E00700070001E00078001E0C1
:10431000002000000000000000000000000000007D
:10432000000000000000000000000000000000008D
:10433000000000007FE07FE0000000007FE07FE001
:10434000000000000000000000000000000000006D
:10435000000000000000000000000000000040001D
:1043600078001E00078000E000E007801E00780053
:1043700040000000000000000000000000000000FD
:1043800000000000000000000F801FC010600060EF
:1043900000E001C0038006000600060000000000E7
:1043A00006000600060000000000000000000000FB
:1043B00000000000000000000000078018C030600E
:1043C000306023E0626066606660666066606660BA
:1043D000626033E0300018001C000780000000001D
:1043E0000000000000000000060006000F000F00A3
:1043F0000F001F801980198019803FC03FC030C056
:1044000030C060606060000000000000000000003C
:1044100000000000000000007F007F8061C060C0DD
:1044200060C061C07F807F8060C0606060606060ED
:1044300060E07FC07F8000000000000000000000FE
:10444000000000000000000007C01FE0382030001E
:10445000600060006000600060006000600030008C
:1044600038201FE007C0000000000000000000002E
:1044700000000000000000007E007F8061C060C07E
:10448000606060606060606060606060606060C0CC
:1044900061C07F807E00000000000000000000007E
:1044A00000000000000000007FE07FE0600060008E
:1044B000600060007FE07FE06000600060006000FE
:1044C00060007FE07FE000000000000000000000CE
:1044D00000000000000000007FE07FE0600060005E
:1044E000600060007FC07FC060006000600060000E
:1044F000600060006000000000000000000000009C
:1045000000000000000000000F801FC03840300095
:1045100060006000600061E061E0606060603060E9
:1045200038601FE00F800000000000000000000065
:10453000000000000000000060606060606060607B
:10454000606060607FE07FE060606060606060602D
:10455000606060606060000000000000000000001B
:1045600000000000000000003FC03FC00600060041
:10457000060006000600060006000600060006000B
:1045800006003FC03FC00000000000000000000027
:1045900000000000000000001F801F8001800180DB
:1045A0000180018001800180018001800180018003
:1045B00043807F003E00000000000000000000007B
:1045C0000000000000000000606060C061806300C7
:1045D00066006C007C007E00760063006380618072
:1045E00060C060E0606000000000000000000000AB
:1045F000000000000000000060006000600060003B
:1046000060006000600060006000600060006000AA
:1046100060007FE07FE0000000000000000000007C
:10462000000000000000000070E070E070E079E041
:10463000696069606F606660666066606060606047
:10464000606060606060000000000000000000002A
:10465000000000000000000070607060786078600A
:104660006C606C606460666062606360636061E09F
:1046700061E060E060E00000000000000000000079
:1046800000000000000000000F003FC030C070E0DC
:10469000606060606060606060606060606070E08A
:1046A00030C03FC00F00000000000000000000000C
:1046B00000000000000000007F807FC060E06060BC
:1046C0006060606060E07FC07F80600060006000CC
:1046D00060006000600000000000000000000000BA
:1046E00000000000000000000F003FC030C070E07C
:1046F000606060606060606060606060606070E02A
:1047000030C01F800F00018000C00080000000004A
:1047100000000000000000007F007FC060E06060DB
:104720006060606060C07FC07F8061C060C06060AA
:104730006060603060300000000000000000000099
:1047400000000000000000001F803FC070406000BB
:10475000600070003E001F8001C0006000600060CB
:1047600040E07FC03F80000000000000000000002B
:104770000000000000000000FFF0FFF0060006004F
:1047800006000600060006000600060006000600F9
:104790000600060006000000000000000000000007
:1047A0000000000000000000606060606060606009
:1047B00060606060606060606060606060606060F9
:1047C00070E03FC01F8000000000000000000000FB
:1047D00000000000000000006060606030C030C079
:1047E00030C030C01980198019801F800F000F0061
:1047F0000F0006000600000000000000000000009E
:104800000000000000000000C030C030C030606018
:10481000666066606F606F606960696039C039C0EA
:1048200039C030C030C000000000000000000000AF
:10483000000000000000000070E030C039C01980A6
:104840000F000F00060006000F000F001B801980EC
:1048500031C030C060E00000000000000000000037
:104860000000000000000000E070606030C030C058
:1048700019801F800F0006000600060006000600D3
:104880000600060006000000000000000000000016
:1048900000000000000000007FE07FE000C001C0D9
:1048A00001800300070006000E000C00180038000D
:1048B00030007FE07FE0000000000000000000000A
:1048C00000000000000007800780060006000600C8
:1048D00006000600060006000600060006000600A8
:1048E00006000600060006000780078000000000A2
:1048F00000000000000000006000300030001800E0
:1049000018000C000C00060006000600030003005F
:104910000180018000C000C00060000000000000B5
:104920000000000000000F000F0003000300030060
:10493000030003000300030003000300030003005F
:1049400003000300030003000F000F00000000003D
:10495000000000000000000007000F800D8018C05C
:104960003060603000000000000000000000000027
:104970000000000000000000000000000000000037
:104980000000000000000000000000000000000027
:104990000000000000000000000000000000000017
:1049A000000000000000000000000000FFF0FFF029
:1049B0000000000018000C000600030000000000CA
:1049C00000000000000000000000000000000000E7
:1049D00000000000000000000000000000000000D7
:1049E00000000000000000000000000000000000C7
:1049F0001F003F8021C000C01FC03FC070C060C00A
:104A000061C07FC01CC0000000000000000000006A
:104A100000000000000060006000600060006000B6
:104A20006F007F80718060C060C060C060C060C087
:104A300071807F806F000000000000000000000017
:104A40000000000000000000000000000000000066
:104A50000F003F80308060006000600060006000F8
:104A600030803F800F0000000000000000000000C8
:104A700000000000000000C000C000C000C000C076
:104A80001EC03FC031C060C060C060C060C060C0B8
:104A900031C03FC01EC00000000000000000000048
:104AA0000000000000000000000000000000000006
:104AB0000F003F8031C060C07FC07FC060006000D9
:104AC00030403FC00F8000000000000000000000E8
:104AD00000000000000001E003E006000600060000
:104AE0003FE03FE006000600060006000600060064
:104AF00006000600060000000000000000000000A4
:104B000000000000000000000000000000000000A5
:104B10001EC03FC031C060C060C060C060C060C027
:104B200031C03FC01EC000C021C03F801F00000038
:104B30000000000000006000600060006000600095
:104B400067007F8071C060C060C060C060C060C02E
:104B500060C060C060C000000000000000000000F5
:104B60000000000000000600060000000000000039
:104B70003E003E0006000600060006000600060095
:104B800006007FE07FE00000000000000000000061
:104B9000000000000000030003000000000000000F
:104BA0001F001F00030003000300030003000300B5
:104BB000030003000300030003003E003C0000006C
:104BC0000000000000006000600060006000600005
:104BD00061C0638067006E007C007C007600670027
:104BE0006300618061C00000000000000000000060
:104BF000000000000000FC00FC000C000C000C0099
:104C00000C000C000C000C000C000C000C000C0044
:104C10000E0007C003C000000000000000000000FC
:104C20000000000000000000000000000000000084
:104C30006DC07FE066606660666066606660666044
:104C40006660666066600000000000000000000012
:104C50000000000000000000000000000000000054
:104C600067007F8071C060C060C060C060C060C00D
:104C700060C060C060C000000000000000000000D4
:104C80000000000000000000000000000000000024
:104C90001F003F80318060C060C060C060C060C0E5
:104CA00031803F801F000000000000000000000075
:104CB00000000000000000000000000000000000F4
:104CC0006F007F80718060C060C060C060C060C0E5
:104CD00071807F806F0060006000600060000000F5
:104CE00000000000000000000000000000000000C4
:104CF0001EC03FC031C060C060C060C060C060C046
:104D000031C03FC01EC000C000C000C000C00000D5
:104D10000000000000000000000000000000000093
:104D20000CE00DF00F100E000C000C000C000C003D
:104D30000C000C000C00000000000000000000004F
:104D40000000000000000000000000000000000063
:104D50001F803FC0604060007F001F8001C000C016
:104D600041C07F803F000000000000000000000004
:104D7000000000000000000000000C000C000C000F
:104D80007FC07FC00C000C000C000C000C000C005D
:104D90000C000FC007C00000000000000000000071
:104DA0000000000000000000000000000000000003
:104DB00060C060C060C060C060C060C060C060C0F3
:104DC00071C03FC01CC000000000000000000000D7
:104DD00000000000000000000000000000000000D3
:104DE00060C071C0318031803B801B001B001B0004
:104DF0000E000E000E000000000000000000000089
:104E000000000000000000000000000000000000A2
:104E1000C030C03060606660666066603FC039C0A8
:104E200039C039C030C000000000000000000000A0
:104E30000000000000000000000000000000000072
:104E400071C031801B001F000E000E000E001F00FD
:104E50001B00318071C00000000000000000000055
:104E60000000000000000000000000000000000042
:104E700060C03180318031801B001B001F000E009C
:104E80000E0006000C000C000C003800380000007A
:104E90000000000000000000000000000000000012
:104EA0007FC07FC00380030007000E001C001800B5
:104EB00030007FC07FC00000000000000000000044
:104EC00000000000000003C007C006000600060046
:104ED0000600060006003C003C000E00060006002E
:104EE000060006000600060007C003C00000000020
:104EF0000000000000000600060006000600060094
:104F00000600060006000600060006000600060071
:104F10000600060006000600060006000600060061
:104F20000000000000003C003E00060006000600F5
:104F300006000600060003C003C0070006000600C6
:104F400006000600060006003E003C0000000000CF
:104F50000000000000000000000000000000000051
:104F60000000000000000000000000000000000041
:104F70000000000000000000000000000000000031
:104F80000000000000000000000000000000000021
:104F900000000000000000000000000001C001C08F
:104FA00001C001C001C001C001C001C001C001C0F9
:104FB00001C001C001C001C000000000000001C02C
:104FC00001C001C00000000000000000000000005F
:104FD0000000000000000000000000000630063065
:104FE000063006300630063006300630000000007D
:104FF00000000000000000000000000000000000B1
:1050000000000000000000000000000000000000A0
:1050100000000000000000000000018C038C030C65
:105020000318031803187FFF7FFF063006300E3089
:105030000C700C60FFFEFFFE186018C018C018C08E
:1050400030C03180000000000000000000000000BF
:1050500000000000000000000000008000800080D0
:1050600003F00FFC0E8C1C801C801C801C800E80AA
:105070000FE003F800FC009E008E008E008E109C56
:105080001FF807F000800080008000800000000012
:105090000000000000000000000000003C007E0056
:1050A000E700C300C300C300E7007E1C3C7801C0DA
:1050B00007003C7870FC01CE01860186018601CE96
:1050C00000FC00780000000000000000000000006C
:1050D00000000000000000000000000007C00FE01A
:1050E0001E201C001C001C001E000E000F001F00D4
:1050F0003F8333C371E370E370F6707E783C3C3ECF
:105100001FEE07CF000000000000000000000000BC
:10511000000000000000000000000000018001808D
:105120000180018001800180018001800000000079
:10513000000000000000000000000000000000006F
:10514000000000000000000000000000000000005F
:10515000000000000000000000000030006000605F
:1051600000E000C001C001C0018003800380038013
:10517000038003800380038003800380018001C0DB
:1051800001C000C000E000600060003000000000CE
:105190000000000000000000000006000300030003
:1051A0000380018001C001C000C000E000E000E019
:1051B00000E000E000E000E000E000E000C001C02E
:1051C00001C001800380030003000600000000000E
:1051D00000000000000000000000000001800180CD
:1051E0002184399C0FF003C003C00FF0399C218447
:1051F00001800180000000000000000000000000AD
:10520000000000000000000000000000000000009E
:10521000000000000000000000000000000000008E
:105220000000000001800180018001800180018078
:105230007FFE7FFE0180018001800180018001806E
:10524000000000000000000000000000000000005E
:10525000000000000000000000000000000000004E
:10526000000000000000000000000000000000003E
:1052700000000000000000000000000001C001C0AC
:1052800001C001C001800380038003000000000012
:10529000000000000000000000000000000000000E
:1052A00000000000000000000000000000000000FE
:1052B000000007F007F00000000000000000000000
:1052C00000000000000000000000000000000000DE
:1052D00000000000000000000000000000000000CE
:1052E00000000000000000000000000000000000BE
:1052F00000000000000000000000000003800380A8
:105300000380038000000000000000000000000097
:10531000000000000000000000000000001C003839
:10532000003800700070007000E000E001C001C0B3
:10533000038003800380070007000E000E001C009E
:105340001C001C0038003800700000000000000045
:1053500000000000000000000000000003E00FF863
:105360000E381C1C1C1C380E380E380E39CE39CEA7
:1053700039CE380E380E380E380E1C1C1C1C0E3858
:105380000FF803E000000000000000000000000033
:1053900000000000000000000000000003E00FE03B
:1053A0000CE000E000E000E000E000E000E000E0F1
:1053B00000E000E000E000E000E000E000E000E0ED
:1053C0000FFE0FFE000000000000000000000000C3
:1053D0000000000000000000000000000FE03FF8A7
:1053E000383C201E000E000E000E000E001E003C79
:1053F000007C00F800F001E003C007000E001C0074
:105400003FFE3FFE00000000000000000000000022
:1054100000000000000000000000000007F01FF87E
:10542000181C000E000E000E000E003C07F007F0E6
:10543000003C001C000E000E000E000E001E303C52
:105440003FF80FE000000000000000000000000036
:10545000000000000000000000000000007000F0EC
:1054600001F001F00370077006700C700C7018707A
:105470003870307060707FFE7FFE007000700070CA
:10548000007000700000000000000000000000003C
:105490000000000000000000000000001FFC1FFCD6
:1054A0001C001C001C001C001FE01FF8103C001C0E
:1054B000000E000E000E000E000E000E001C203C20
:1054C0003FF81FE0000000000000000000000000A6
:1054D00000000000000000000000000001F807FCD0
:1054E0000F041E001C001C00380039F03BF83E3C45
:1054F0003C1E380E380E380E380E180E1C1C0E3C92
:105500000FF803F0000000000000000000000000A1
:105510000000000000000000000000003FFE3FFE11
:10552000001E001C001C003800380038007000709D
:1055300000F000E000E001E001C001C00380038052
:1055400003800700000000000000000000000000D1
:1055500000000000000000000000000007F01FFC39
:105560001C1C380E380E380E380E1C1C07F00FF8B5
:105570001E3C1C1C380E380E380E380E3C1E1E3CCD
:105580000FF807F00000000000000000000000001D
:1055900000000000000000000000000007E00FF81D
:1055A0001E383C1C380C380E380E380E380E3C1E97
:1055B0001E3E0FEE07CE000E001C001C003C1078B3
:1055C0001FF00FC0000000000000000000000000FD
:1055D00000000000000000000000000000000000CB
:1055E00000000000000000000380038003800380AF
:1055F00000000000000000000000000003800380A5
:105600000380038000000000000000000000000094
:10561000000000000000000000000000000000008A
:10562000000000000000000003800380038003806E
:105630000000000000000000000000000380038064
:10564000038003800300070007000600000000003D
:10565000000000000000000000000000000000004A
:10566000000000000002001E007E01F80FC03F0095
:10567000780078003F000FC001F8007E001E000295
:10568000000000000000000000000000000000001A
:10569000000000000000000000000000000000000A
:1056A0000000000000000000000000007FFE7FFE00
:1056B0000000000000007FFE7FFE000000000000F0
:1056C00000000000000000000000000000000000DA
:1056D00000000000000000000000000000000000CA
:1056E00000000000400078007E001F8003F000FCF6
:1056F000001E001E00FC03F01F807E0078004000AA
:105700000000000000000000000000000000000099
:1057100000000000000000000000000003E00FF89F
:105720001C38101C001C003C003C007800F001E01C
:1057300003C0038003800380038000000000038017
:105740000380038000000000000000000000000053
:10575000000000000000000000000000000001F850
:1057600007FC0E0E1C0618033003307B61FF6187B7
:1057700063036303630363036303618771FF307B28
:10578000300018001C000F0403FC00FC00000000A7
:1057900000000000000000000000000001C003E065
:1057A00003E003E003E00770077007700F780E381E
:1057B0000E380E381FFC1FFC1C1C380E380E380E1D
:1057C000780F7007000000000000000000000000DB
:1057D0000000000000000000000000003FE03FF873
:1057E0003838381C381C381C381C38383FF03FF02B
:1057F000383C381C380E380E380E380E381E383CFF
:105800003FF83FE000000000000000000000000042
:1058100000000000000000000000000001F807FC8C
:105820000F0C1E041C001C00380038003800380023
:1058300038003800380038001C001C001E040F0C13
:1058400007FC01F80000000000000000000000005C
:105850000000000000000000000000003FC03FF01A
:105860003878381C381C380C380E380E380E380E84
:10587000380E380E380E380E380C381C381C387874
:105880003FF03FC0000000000000000000000000EA
:105890000000000000000000000000001FFE1FFECE
:1058A0001C001C001C001C001C001C001FFC1FFC1A
:1058B0001C001C001C001C001C001C001C001C0008
:1058C0001FFE1FFE0000000000000000000000009E
:1058D0000000000000000000000000001FFE1FFE8E
:1058E0001C001C001C001C001C001C001FFC1FFCDA
:1058F0001C001C001C001C001C001C001C001C00C8
:105900001C001C000000000000000000000000005F
:1059100000000000000000000000000001F807FC8B
:105920000F0C1E041C001C00380038003800387EA4
:10593000387E380E380E380E1C0E1C0E1C0E0F1E34
:1059400007FE01F800000000000000000000000059
:10595000000000000000000000000000380E380EBB
:10596000380E380E380E380E380E380E3FFE3FFE19
:10597000380E380E380E380E380E380E380E380EF7
:10598000380E380E0000000000000000000000008B
:105990000000000000000000000000001FFC1FFCD1
:1059A00001C001C001C001C001C001C001C001C0EF
:1059B00001C001C001C001C001C001C001C001C0DF
:1059C0001FFC1FFC000000000000000000000000A1
:1059D00000000000000000000000000007F807F8C9
:1059E00000380038003800380038003800380038F7
:1059F000003800380038003800380038203830705F
:105A00003FF00FC000000000000000000000000098
:105A10000000000000000000000000003807380E01
:105A2000381C3838387038E039C03B803F803FC080
:105A30003FC03DE038F038703878383C381C381EAC
:105A4000380F3807000000000000000000000000D0
:105A50000000000000000000000000001C001C000E
:105A60001C001C001C001C001C001C001C001C0056
:105A70001C001C001C001C001C001C001C001C0046
:105A80001FFE1FFE000000000000000000000000DC
:105A9000000000000000000000000000781E781EDA
:105AA0007C3E7C3E7C3E766E766E766E724E73CE1B
:105AB00073CE718E718E700E700E700E700E700E31
:105AC000700E700E000000000000000000000000DA
:105AD0000000000000000000000000003C0E3C0E32
